{
  "contractName": "HLTC",
  "abi": [
    {
      "inputs": [
        {
          "internalType": "address",
          "name": "_recipient",
          "type": "address"
        },
        {
          "internalType": "address",
          "name": "_tokenAddress",
          "type": "address"
        },
        {
          "internalType": "uint256",
          "name": "_amount",
          "type": "uint256"
        },
        {
          "internalType": "address",
          "name": "_hasher",
          "type": "address"
        }
      ],
      "stateMutability": "nonpayable",
      "type": "constructor"
    },
    {
      "inputs": [],
      "name": "admin",
      "outputs": [
        {
          "internalType": "address",
          "name": "",
          "type": "address"
        }
      ],
      "stateMutability": "view",
      "type": "function"
    },
    {
      "inputs": [],
      "name": "amount",
      "outputs": [
        {
          "internalType": "uint256",
          "name": "",
          "type": "uint256"
        }
      ],
      "stateMutability": "view",
      "type": "function"
    },
    {
      "inputs": [],
      "name": "hash",
      "outputs": [
        {
          "internalType": "bytes32",
          "name": "",
          "type": "bytes32"
        }
      ],
      "stateMutability": "view",
      "type": "function"
    },
    {
      "inputs": [],
      "name": "hasher",
      "outputs": [
        {
          "internalType": "contract Hasher",
          "name": "",
          "type": "address"
        }
      ],
      "stateMutability": "view",
      "type": "function"
    },
    {
      "inputs": [],
      "name": "lockTime",
      "outputs": [
        {
          "internalType": "uint256",
          "name": "",
          "type": "uint256"
        }
      ],
      "stateMutability": "view",
      "type": "function"
    },
    {
      "inputs": [],
      "name": "recipient",
      "outputs": [
        {
          "internalType": "address",
          "name": "",
          "type": "address"
        }
      ],
      "stateMutability": "view",
      "type": "function"
    },
    {
      "inputs": [],
      "name": "secret",
      "outputs": [
        {
          "internalType": "string",
          "name": "",
          "type": "string"
        }
      ],
      "stateMutability": "view",
      "type": "function"
    },
    {
      "inputs": [],
      "name": "timeLock",
      "outputs": [
        {
          "internalType": "uint256",
          "name": "",
          "type": "uint256"
        }
      ],
      "stateMutability": "view",
      "type": "function"
    },
    {
      "inputs": [],
      "name": "token",
      "outputs": [
        {
          "internalType": "contract IERC20",
          "name": "",
          "type": "address"
        }
      ],
      "stateMutability": "view",
      "type": "function"
    },
    {
      "inputs": [],
      "name": "tokenAddress",
      "outputs": [
        {
          "internalType": "address",
          "name": "",
          "type": "address"
        }
      ],
      "stateMutability": "view",
      "type": "function"
    },
    {
      "inputs": [],
      "name": "fund",
      "outputs": [],
      "stateMutability": "nonpayable",
      "type": "function"
    },
    {
      "inputs": [
        {
          "internalType": "string",
          "name": "_secret",
          "type": "string"
        }
      ],
      "name": "withdraw",
      "outputs": [],
      "stateMutability": "nonpayable",
      "type": "function"
    },
    {
      "inputs": [],
      "name": "refund",
      "outputs": [],
      "stateMutability": "nonpayable",
      "type": "function"
    }
  ],
  "bytecode": "0x60806040527f1c8aff950685c2ed4bc3174f3472287b56d9517b9c948127319a09a7a36deac860001b60045561271060065534801561003d57600080fd5b50604051610c8f380380610c8f8339818101604052608081101561006057600080fd5b810190808051906020019092919080519060200190929190805190602001909291908051906020019092919050505033600160006101000a81548173ffffffffffffffffffffffffffffffffffffffff021916908373ffffffffffffffffffffffffffffffffffffffff16021790555082600860006101000a81548173ffffffffffffffffffffffffffffffffffffffff021916908373ffffffffffffffffffffffffffffffffffffffff16021790555080600960006101000a81548173ffffffffffffffffffffffffffffffffffffffff021916908373ffffffffffffffffffffffffffffffffffffffff16021790555081600281905550836000806101000a81548173ffffffffffffffffffffffffffffffffffffffff021916908373ffffffffffffffffffffffffffffffffffffffff16021790555050505050610ae3806101ac6000396000f3fe608060405234801561001057600080fd5b50600436106100cf5760003560e01c8063aa8c217c1161008c578063d1efd30d11610066578063d1efd30d14610283578063ed33639f14610306578063f851a4401461033a578063fc0c546a1461036e576100cf565b8063aa8c217c1461023d578063b60d42881461025b578063d085835a14610265576100cf565b806309bd5a60146100d45780630d668087146100f257806331fb67c214610110578063590e1ae3146101cb57806366d003ac146101d55780639d76ea5814610209575b600080fd5b6100dc6103a2565b6040518082815260200191505060405180910390f35b6100fa6103a8565b6040518082815260200191505060405180910390f35b6101c96004803603602081101561012657600080fd5b810190808035906020019064010000000081111561014357600080fd5b82018360208201111561015557600080fd5b8035906020019184600183028401116401000000008311171561017757600080fd5b91908080601f016020809104026020016040519081016040528093929190818152602001838380828437600081840152601f19601f8201169050808301925050505050505091929192905050506103ae565b005b6101d3610642565b005b6101dd6107b2565b604051808273ffffffffffffffffffffffffffffffffffffffff16815260200191505060405180910390f35b6102116107d6565b604051808273ffffffffffffffffffffffffffffffffffffffff16815260200191505060405180910390f35b6102456107fc565b6040518082815260200191505060405180910390f35b610263610802565b005b61026d6108fa565b6040518082815260200191505060405180910390f35b61028b610900565b6040518080602001828103825283818151815260200191508051906020019080838360005b838110156102cb5780820151818401526020810190506102b0565b50505050905090810190601f1680156102f85780820380516001836020036101000a031916815260200191505b509250505060405180910390f35b61030e61099e565b604051808273ffffffffffffffffffffffffffffffffffffffff16815260200191505060405180910390f35b6103426109c4565b604051808273ffffffffffffffffffffffffffffffffffffffff16815260200191505060405180910390f35b6103766109ea565b604051808273ffffffffffffffffffffffffffffffffffffffff16815260200191505060405180910390f35b60045481565b60055481565b600454600960009054906101000a900473ffffffffffffffffffffffffffffffffffffffff1673ffffffffffffffffffffffffffffffffffffffff1663766954b4836040518263ffffffff1660e01b81526004018080602001828103825283818151815260200191508051906020019080838360005b8381101561043f578082015181840152602081019050610424565b50505050905090810190601f16801561046c5780820380516001836020036101000a031916815260200191505b509250505060206040518083038186803b15801561048957600080fd5b505afa15801561049d573d6000803e3d6000fd5b505050506040513d60208110156104b357600080fd5b810190808051906020019092919050505014610537576040517f08c379a000000000000000000000000000000000000000000000000000000000815260040180806020018281038252601b8152602001807f5b41544f4d49432d535741505d2057726f6e67207365637265742e000000000081525060200191505060405180910390fd5b806007908051906020019061054d929190610a10565b50600860009054906101000a900473ffffffffffffffffffffffffffffffffffffffff1673ffffffffffffffffffffffffffffffffffffffff1663a9059cbb60008054906101000a900473ffffffffffffffffffffffffffffffffffffffff166002546040518363ffffffff1660e01b8152600401808373ffffffffffffffffffffffffffffffffffffffff16815260200182815260200192505050602060405180830381600087803b15801561060357600080fd5b505af1158015610617573d6000803e3d6000fd5b505050506040513d602081101561062d57600080fd5b81019080805190602001909291905050505050565b6006546005540142116106bd576040517f08c379a00000000000000000000000000000000000000000000000000000000081526004018080602001828103825260188152602001807f5b41544f4d49432d535741505d20546f6f206561726c792e000000000000000081525060200191505060405180910390fd5b600860009054906101000a900473ffffffffffffffffffffffffffffffffffffffff1673ffffffffffffffffffffffffffffffffffffffff1663a9059cbb600160009054906101000a900473ffffffffffffffffffffffffffffffffffffffff166002546040518363ffffffff1660e01b8152600401808373ffffffffffffffffffffffffffffffffffffffff16815260200182815260200192505050602060405180830381600087803b15801561077457600080fd5b505af1158015610788573d6000803e3d6000fd5b505050506040513d602081101561079e57600080fd5b810190808051906020019092919050505050565b60008054906101000a900473ffffffffffffffffffffffffffffffffffffffff1681565b600360009054906101000a900473ffffffffffffffffffffffffffffffffffffffff1681565b60025481565b42600581905550600860009054906101000a900473ffffffffffffffffffffffffffffffffffffffff1673ffffffffffffffffffffffffffffffffffffffff166323b872dd33306002546040518463ffffffff1660e01b8152600401808473ffffffffffffffffffffffffffffffffffffffff1681526020018373ffffffffffffffffffffffffffffffffffffffff1681526020018281526020019350505050602060405180830381600087803b1580156108bc57600080fd5b505af11580156108d0573d6000803e3d6000fd5b505050506040513d60208110156108e657600080fd5b810190808051906020019092919050505050565b60065481565b60078054600181600116156101000203166002900480601f0160208091040260200160405190810160405280929190818152602001828054600181600116156101000203166002900480156109965780601f1061096b57610100808354040283529160200191610996565b820191906000526020600020905b81548152906001019060200180831161097957829003601f168201915b505050505081565b600960009054906101000a900473ffffffffffffffffffffffffffffffffffffffff1681565b600160009054906101000a900473ffffffffffffffffffffffffffffffffffffffff1681565b600860009054906101000a900473ffffffffffffffffffffffffffffffffffffffff1681565b828054600181600116156101000203166002900490600052602060002090601f016020900481019282601f10610a5157805160ff1916838001178555610a7f565b82800160010185558215610a7f579182015b82811115610a7e578251825591602001919060010190610a63565b5b509050610a8c9190610a90565b5090565b5b80821115610aa9576000816000905550600101610a91565b509056fea26469706673582212202888b2a13892da4570aa52223d65bd6bfd2412f11b7b31c126a35442469722b164736f6c63430007000033",
  "immutableReferences": {},
  "source": "// SPDX-License-Identifier: UNLICENSED\npragma solidity 0.7.0;\n\ninterface IERC20 {\n\tfunction transfer(address recipient, uint256 amount) external returns (bool);\n  function transferFrom(address sender, address recipient, uint256 amount) external returns (bool);\n}\n\ninterface Hasher {\n  function hashString(string memory _toHash) external view returns (bytes32);\n}\n\ncontract HLTC {\n\taddress public recipient;\n\taddress public admin;\n\tuint256 public amount;\n\taddress public tokenAddress;  \n\tbytes32 public hash = 0x1c8aff950685c2ed4bc3174f3472287b56d9517b9c948127319a09a7a36deac8;\n\tuint256 public lockTime;\n\tuint256 public timeLock = 10000 seconds;\n  string public secret;\n  IERC20 public token;\n  Hasher public hasher;\n\n\tconstructor(address _recipient, address _tokenAddress, uint256 _amount, address _hasher) {\n\t\tadmin = msg.sender;\n\t\ttoken = IERC20(_tokenAddress);\n    hasher = Hasher(_hasher);\n\t\tamount = _amount;\n\t\trecipient = _recipient;\n\t}\n\n  function fund() external {\n    lockTime = block.timestamp;\n    token.transferFrom(msg.sender, address(this), amount);\n  }\n\n  function withdraw(string memory _secret) external {\n    require(hasher.hashString(_secret) == hash, '[ATOMIC-SWAP] Wrong secret.');\n    secret = _secret;\n    token.transfer(recipient, amount);\n  }\n  \n  function refund() external {\n    require(block.timestamp > lockTime + timeLock, '[ATOMIC-SWAP] Too early.');\n    token.transfer(admin, amount);\n  }\n}\n",
  "sourcePath": "/home/aarya/github/atomic-swaps/contracts/HTLC.sol",
  "compiler": {
    "name": "solc",
    "version": "0.7.0+commit.9e61f92b.Emscripten.clang"
  },
  "schemaVersion": "3.3.2",
  "updatedAt": "2020-12-06T06:30:46.518Z",
  "devdoc": {
    "kind": "dev",
    "methods": {},
    "version": 1
  },
  "userdoc": {
    "kind": "user",
    "methods": {},
    "version": 1
  }
}